:020000040800F2
:1000000030070020CD010008C9250008C51C0008E4
:10001000C5250008D5020008B5260008000000002C
:10002000000000000000000000000000D9250008CA
:10003000D902000800000000D1250008DD250008D5
:10004000E7010008CD250008E7010008E7010008E6
:1000500071030008D5250008DD0200081D03000813
:10006000250300082D03000835030008E7010008F8
:10007000E7010008E7010008E7010008E7010008C0
:10008000E7010008E7010008E7010008E7010008B0
:10009000E7010008E7010008E70100083D03000848
:1000A000E7010008E7010008E7010008E701000890
:1000B000E7010008E7010008E7010008C91C000883
:1000C000E7010008E7010008E7010008E701000870
:1000D000E7010008A9260008E7010008E701000879
:1000E000E5020008E7010008E7010008E701000851
:1000F000E7010008E7010008E7010008E701000840
:10010000E7010008E7010008E7010008E70100082F
:10011000E7010008E7010008E7010008E70100081F
:10012000E7010008E7010008E7010008E70100080F
:1001300000F002F800F03AF80AA090E8000C8244BF
:100140008344AAF10107DA4501D100F02FF8AFF29C
:10015000090EBAE80F0013F0010F18BFFB1A43F0A5
:1001600001031847F425000014260000103A24BFAC
:1001700078C878C1FAD8520724BF30C830C144BF0C
:1001800004680C607047000000230024002500264E
:10019000103A28BF78C1FBD8520728BF30C148BFEA
:1001A0000B6070471FB51FBD10B510BD00F058F8AB
:1001B0001146FFF7F7FF02F07FFA00F076F803B47C
:1001C000FFF7F2FF03BC00F07DF80000094880470C
:1001D00009480047FEE7FEE7FEE7FEE7FEE7FEE729
:1001E000FEE7FEE7FEE7FEE704480549054A064B41
:1001F00070470000E12500083101000830010020AF
:100200003007002030030020300300204FF00002B0
:1002100000B5134694469646203922BFA0E80C50FC
:10022000A0E80C50B1F12001BFF4F7AF090728BFD7
:10023000A0E80C5048BF0CC05DF804EB890028BF53
:1002400040F8042B08BF704748BF20F8022B11F07C
:10025000804F18BF00F8012B7047704770477047F8
:10026000754600F02BF8AE4605006946534620F06F
:100270000700854618B020B5FFF7B6FFBDE820405F
:100280004FF000064FF000074FF000084FF0000B52
:10029000AC46ACE8C009ACE8C009ACE8C009ACE8C1
:1002A000C00921F007018D46704710B50446AFF331
:1002B00000802046BDE81040FFF781BF004870472E
:1002C0001000002001491820ABBEFEE72600020006
:1002D00070470000FEE7000070470000012000F0BA
:1002E000D9B9000080B54FF4806000F0D3F94FF425
:1002F000006000F0CFF94FF4805000F0CBF94FF4DC
:10030000005000F0C7F94FF4804000F0C3F94FF4FB
:100310000040BDE8804000F0BDB90000022000F0C0
:10032000B9B90000042000F0B5B90000082000F0C1
:10033000B1B90000102000F0ADB9000080B5202058
:1003400000F0A8F9402000F0A5F9802000F0A2F903
:100350004FF4807000F09EF94FF40070BDE88040CB
:1003600000F098B9EFF3108072B600BFFEE700000E
:1003700000F0D2B840F20811C2F200010022CA61B6
:1003800042F21001C4F202010A6842F002020A605D
:100390004860086840F0400008607047014690F8E7
:1003A0002100022816D10868D1E90FC3026822F0A3
:1003B0000E020260026822F001020260012000FACF
:1003C00003F2CCF8042081F821000020002281F8FB
:1003D00020207047042088630120002281F820201B
:1003E0007047000080B590F82110022928D10268DA
:1003F00040F2040C1368C4F2020C23F00E031360E5
:1004000013680CF17C018A4223F0010111601BD9B1
:1004100040F20841C4F202018A4249D040F21C4134
:10042000C4F202018A4247D040F23041C4F20201D4
:100430008A4245D14FF48073CCF800345DE000BFB0
:1004400004218163012080BD4321C4F202018A425C
:100450000EDD6B21C4F202018A421BDC4421C4F28E
:1004600002018A423CD05821C4F202018A4233E0A0
:100470000821C4F202018A4236D01C21C4F20201D2
:100480008A4237D03021C4F202018A4224D14FF48B
:10049000807230E06C21C4F202018A4226D08021B1
:1004A000C4F202018A4217D14FF0807223E000BFEC
:1004B0000123CCF8003420E01023CCF800341CE0F9
:1004C0000CF588614FF480338A4208BF4FF48053A3
:1004D000CCF8003411E000BF4FF480320BE000BFD5
:1004E0004FF4805207E000BF012204E04FF4801275
:1004F00001E000BF1022CCF80020416B4FF4807265
:10050000028401B18847002080BD000090F82100DE
:10051000704700007047000070B542F21004C4F24A
:10052000020454F8040C40F20815C006C2F200059B
:100530005CBF54F8040C5FEA40702DD54FF0FF31DA
:10054000A868A96054F8041CC90605D4002154F811
:10055000042C520709D40EE0E96941F00201E96177
:10056000102154F8042C520705D5EA6941F0040122
:1005700042F00102EA61E268D20707D0EA6942F07C
:100580000402EA61E26822F00102E26044F8041C1D
:1005900000F07CF80020287054F8040C800666D522
:1005A000202044F8040C2878002860D028780128FE
:1005B00012D16868013868606868D8B3A868FFF726
:1005C000A9FFA86800F50060A860216821F0020179
:1005D0002160FFF7CFFE4AE0287802280AD1206880
:1005E000002620F0040020600020FFF793FF2E700B
:1005F0003DE000BF686801386860686820B3A8689B
:100600000230A860A868D5E90412090C41EA024149
:10061000120CC5E90412216821F001012160D5E91D
:1006200004120022EA61226842F001022260018085
:100630001DE000BF4FF0FF30A860002028704FF091
:10064000FF30FFF767FF12E02878032802D1A8687F
:1006500006E000BF2978A868042914BF06380238CC
:10066000FFF758FF4FF0FF30A8600020287028786F
:10067000002818BF70BD206820F0070020602068A7
:1006800020F4A05020600020287670BD7047000044
:100690007047000040F21441C4F201010A680242AE
:1006A00014BF08607047FFF7F3BF00002DE9F04F5B
:1006B00082B0D1F800C0BCF1000F00F0F180A0F1D1
:1006C000804241F60045A2F58432C4F2010540F2B1
:1006D000004E4FEAB2240627A842C4F2010E08BF1A
:1006E0000527052C4FF000044FF001084FF00F03D1
:1006F0004FF0000A4FF0000B38BF4FEAB2270097C7
:100700000AE000BFD1F800C00AF1010A3CFA0AF27F
:1007100004F1040400F0C48008FA0AF91CEA090F85
:10072000F0D04E684FF6FF72C1F21002964211DC13
:10073000122E55D8DFE806F0340A44485454545475
:100740005454545454545454544C5000D1F80CB094
:1007500046E000BF4FF6FF72C1F2210296420FDC65
:100760000022C1F2110296421AD00022C1F21202F6
:10077000964215D00022C1F22102964210D02FE0FD
:100780000022C1F2220296420AD00022C1F23102B6
:10079000964205D00022C1F23202964220D100BF1B
:1007A0008A684AB1012A14BFC0F81490C0F81090AA
:1007B0004FF0080B14E000BF4FF0040B10E000BF37
:1007C000CA6802F1080B0BE04FF0000B08E000BF15
:1007D000CA6802F1040B03E0CA6802F10C0B00BF07
:1007E00022460646BAF1080F24BF203A043637687D
:1007F00003FA02F5AF430BFA02F23A433260CA79C8
:10080000D2067FF57FAF41F21807C4F202073A68BB
:100810004FF6084342F001023A603A68CFF6FF73A0
:1008200002F001020192019A2AF0030272440F259C
:10083000D75804F00C06B540AF43009D05FA06F604
:100840003743D7504E6840F20C45F203DEF80020E3
:1008500054BF22EA090242EA0902CEF80020DEF87B
:100860000420B70354BF22EA090242EA0902CEF883
:100870000420DEF80820C4F20105F70254BF22EA82
:10088000090242EA0902CEF808200F232A68B702BB
:1008900054BF22EA090242EA09022A6032E700BF95
:1008A00002B0BDE8F08F0000002A08BF0904016112
:1008B0007047000040F22810C2F200000068704744
:1008C0007047000070470000F0B581B0076804462B
:1008D0007868E26A94F83E3094F83DE0402B01D00D
:1008E000102B27D1BE697D69E90751D1B2F12A4F9A
:1008F00000F0BE82B2F52A0F00F0BA8200F4007256
:100900004FF0010C29078CEA522C45D5002A43D020
:10091000606B616CC9B2396118B1806A002840F01F
:100920002481A06B002800F0A382806A002840F098
:100930001C819DE2216C00F4007300290CBFBE698C
:1009400000267D69A90753D5002B51D0206C0028C3
:1009500018BFBE6994F83D0000F02800282840F038
:1009600093807868002320F480607860012020EA7A
:10097000960130064FF0180058BF0C20225A20462E
:1009800084F83C3001B0BDE8F040FFF79BBF00BFEA
:10099000810557D44FF0010CA90759D5BCF1000FC0
:1009A00056D194F83E30E06A226B94F83D1022292B
:1009B00040F0E280216D002908BF402B00F0DC8070
:1009C000216D002940F032812169B1F5404F40F09E
:1009D0002D810020009078690090B86900900098FF
:1009E000386840F480703860206D013093E200BFB9
:1009F000E90655D5002B53D094F83D50786820F483
:100A0000E06078600020009078690090386840F0DD
:100A1000010038600098386820F480603860786899
:100A2000000540F1408105F0F7002646222840F0FD
:100A3000198156F8380F0168496826F80E1C36F8F7
:100A40000E1C17E1E06AB0F52A0F5FD1012062E0C9
:100A50007968720701F4006100F19880002940F084
:100A60000782690605F0040140F1AE8110F4806050
:100A700000F0AA81002940F0A781204601B0BDE81E
:100A8000F04001F0F3BA00BF0020009079690091B6
:100A9000B9690091009984F83C0001B0F0BD00BF35
:100AA0000EF0F70100F48062212905F0040040F007
:100AB0008380290640F14881002A00F04581002802
:100AC00040F0428194F83D00618D002900F0D08112
:100AD000616A11F8012B3A616162618D01396185AA
:100AE000618D002908BF292840F0C281786828213B
:100AF00020F48060786021202063204684F83D1037
:100B000001B0BDE8F04000F011BB00BFE06AB0F1F9
:100B10002A4F01D10820E06294F83E0040280BD112
:100B2000206D616C002801F0FE0018BF40F001004C
:100B3000386101B0F0BD00BF2069B0F5804F65D1CC
:100B400094F83D00616C212801F0FE0118BF0131CD
:100B50003961606B08B1806A38B9A06B002800F079
:100B60008781806A002800F08381786840F4006003
:100B7000786001B0F0BD00BF00200090786900905F
:100B8000B8690090009801B0F0BD00BF002940F0A6
:100B90006F81290605F0040140F1228110F4806084
:100BA00000F01E81002940F01B81204601B0BDE805
:100BB000F04001F039BB00BF690640F1D980002A3E
:100BC00000F0D680002840F0D38094F83D00618D7D
:100BD000002900F04D813969626A1170616A013142
:100BE0006162618D01396185618D002908BF2A2804
:100BF00040F03E812068416821F4806141602220FC
:100C000028212063204684F83D10D8E0206D00287C
:100C100000F0C080206D012840F02A81606C062120
:100C200001EAD010F130386101B0F0BD618D61B1E1
:100C3000618D012940F0E480202818BF082840F089
:100C40001981386820F4806038600020009078694D
:100C50000090B86900900098386840F400703860DF
:100C600058E100BF56F8340F0168496826F80A1C9D
:100C700036F80A1C19B1216C41F00401216479682D
:100C800021F400617960FFF741FC01280BD0306846
:100C900041F6D541C0F600014163FFF7A3FB10B157
:100CA0003068416B8847608D60B1206841694907B1
:100CB00030D4416949063AD4608D18B1206C40F0B7
:100CC00004002064206C28B1204601B0BDE8F0404B
:100CD00001F092B82A2D07D100202063282084F843
:100CE0003D00204600F020FA94F83D00282859D114
:100CF0000020CFF6FF70E06200212020216384F8FD
:100D00003D00204684F83E1001B0BDE8F04000F000
:100D1000C7B900BF0069616A0870616A2068013163
:100D20006162618D0139618541694906C4D50069F7
:100D3000616A0870606A01306062608D01386085A8
:100D4000608D0028BAD1BDE7002818BF002B00F045
:100D50008F80608D002800F08B80606A10F8011B86
:100D600039616062608D0138608501B0F0BD00BFFF
:100D7000002818BF002B00F07B80608D002877D002
:100D80003869616A0870606A01306062608D01389C
:100D900060856DE0606C062101EAD010F0303861AA
:100DA00001B0F0BD206B222818BF222D60D1002198
:100DB0002020216384F83D00204684F83E1001B0D5
:100DC000BDE8F04000F0B0B9B1FA81F0400950EA56
:100DD0000C004DD1204601B0BDE8F04001F0D2B882
:100DE000B1FA81F0400950EA0C0041D1BEF1210F67
:100DF00036D1204601B0BDE8F04001F0D3B900BFC4
:100E0000618D022914D1102858D801211422814063
:100E1000C0F20102114251D0396841F48061396059
:100E20000021009179690091B9690091009954E01D
:100E3000396841F4806139607968090563D5421EDB
:100E40001F2A5DD80121914048F28102C8F20002B8
:100E5000114255D0786840F48050786053E000BF6C
:100E6000402B05D1204601B0BDE8F04001F036BA74
:100E700001B0F0BD10F5803F0CD1386820F48060DF
:100E80003860786800057FF5E0AE386820F480604F
:100E9000386038E0122A02D101287FF4D2AE10283F
:100EA000F3D8012101FA00F01421C0F20101084237
:100EB000EBD0386840F48060386024E0396841F451
:100EC000006139600021009179690091B969009150
:100ED0000099396821F4806139607968090519D56C
:100EE000421E1F2A1AD80121914048F28102C8F2FD
:100EF0000002114212D0786840F48050786009E016
:100F000010F5803FA6D00020009078690090B86965
:100F1000009000980020206501B0F0BD10F5803FE2
:100F2000E9D0F7E77047000070B5B8B3044690F811
:100F30003D0028B9002084F83C00204600F0BAF8B3
:100F4000242084F83D002068016821F0010101603F
:100F5000016841F400410160016821F40041016031
:100F600000F0A2FA48F28041C0F21E0140F60013E0
:100F7000D4F804E088424FF00001C0F23D0348F28B
:100F8000A16C4FF0000238BF01219842C0F2010C61
:100F900038BF0122E64538BF0A460AB1012070BDBC
:100FA0004DF68361C4F21B31A0FB01122168950C40
:100FB0004B684FF4967623F03F0343EA9243754320
:100FC00044F6D3564B60C1F262060B6AA5FB065687
:100FD000B50923F03F03E64538BF950C6A1C1A4358
:100FE0000A62CA6948F2A0664CF6FF73C0F20106B5
:100FF000B64522EA03020BD801384FEA4E03B0FB94
:10100000F3F001306FF31F30042898BF04201EE076
:10101000A368013863B119230EFB03F3B0FBF3F0AF
:1010200001306FF31F3078B100F5804008E000BF59
:101030000EEB4E03B0FBF3F001306FF31F3028B11D
:1010400000F5004003E000BF012000E00120104354
:10105000C8610868D4E9072320F0C0001043184392
:101060000860886848F2FF3204F10C0690434CCEC9
:1010700018431043A5698860C86820F0FF0030431A
:101080002843C860086840F0010008600020202163
:10109000206484F83D10206384F83E0070BD000099
:1010A0007047000070470000704700007047000064
:1010B0007047000010B586B045F200410068C4F2E8
:1010C000000100228842049202D006B010BD00BF89
:1010D00041F21804C4F20204206840F008002060C5
:1010E000206800F0080001900198C02002901220B2
:1010F00003900320059001F5384002A9FFF7D6FAC6
:101100006068002140F4001060606068002200F414
:101110000010019001981F2000F098F81F2000F0A7
:1011200081F806B010BD0000704700007047000055
:1011300040F2000040F22811C2F20000C2F20001A9
:1011400000780A68104408607047000080B542F2D9
:101150000000C4F20200016841F0100101600320A8
:1011600000F0A0F80F2000F005F800F027F80020AC
:1011700080BD000070B540F20006C2F2000640F2E9
:1011800008013278C2F200014FF47A730968B3FBA8
:10119000F2F20446B1FBF2F1084600F087FB0F2C97
:1011A0004FF0010508D838B94FF0FF302146002232
:1011B000002500F04BF87460284670BD80B582B001
:1011C00041F21800C4F202000168002241F001015E
:1011D0000160016801F0010101910199416841F04C
:1011E000805141604068002100F0805000900098DC
:1011F000012000F02BF8012000F014F80420002159
:10120000002200F023F8042000F00CF80520002153
:10121000002200F01BF8052002B0BDE8804000F07D
:1012200001B80000002848BF7047C1B200F01F009D
:10123000012202FA00F04EF20012CEF2000242EA5F
:10124000D10121F0030108607047000010B54EF68F
:101250000C5CCEF2000CDCF80030C3F3022E8EF0F2
:101260000704042C28BF0424BEF103034FF0FF3E03
:101270000EFA04F438BF0023A14399400EFA03F399
:101280009A43114300F00F0200F160430901043A50
:1012900003F564436244002848BF02F10C0319704F
:1012A00010BD00004EF60C51CEF200010A684FF658
:1012B000FF031A4060F30A2242F0806040F0FD70A4
:1012C000086070477047000010B540F21444C4F243
:1012D00001042068C00358BF10BDFFF7F3FF4FF4AF
:1012E0008030206010BD00002DE9F04381B000285F
:1012F00000F0858042F20008C4F202080446D8F8E3
:1013000000000D4600F0070088420CD2D8F800001B
:1013100020F007002843C8F80000D8F8000000F0CB
:101320000700A8426BD1206841F204098107C4F28A
:10133000020917D5410705D5D9F8001041F4E0613D
:10134000C9F80010010705D5D9F8001041F4605123
:10135000C9F80010D9F80010A26821F0F00111437B
:10136000C9F80010C00741D1D8F8000000F007000C
:10137000A8420CD9D8F8000020F007002843C8F88C
:101380000000D8F8000000F00700A84237D120681C
:10139000410707D5D9F80010E26821F4E061114354
:1013A000C9F80010000708D5D9F80000216920F419
:1013B000605040EAC100C9F80000D9F8002002F0EE
:1013C0000C00082841F20020C0F27A0050D142F20D
:1013D0004673C2F38341C0F60003595CD2033BD489
:1013E00040F60010C0F23D00484341E0606802282A
:1013F0000AD001282AD159F8041C890308D40120F5
:1014000001B0BDE8F08300BF59F8041C8901F6D58E
:10141000D9F8001021F003010843C9F80000FFF7D4
:1014200049FA064641F28837D9F80000616800F0B1
:101430000C00B0EB810F97D0FFF73CFA801BB8424D
:10144000F2D9032001B0BDE8F08300BF59F8041CB5
:101450008907D4D5DCE700BFD9F8002042F22C730D
:10146000C2F34042C0F600039A5C4843B0FBF2F07E
:10147000D9F8001042F22E72C1F30311C0F6000237
:10148000515C40F2080220FA01F140F20400C2F27D
:1014900000000068C2F200021160FFF76BFE00203E
:1014A00001B0BDE8F083000040F2080041F2040101
:1014B000C2F20000C4F202010068096842F23E7202
:1014C000C1F30221C0F60002515CC8407047000021
:1014D00040F2080041F20401C2F20000C4F202012D
:1014E0000068096842F23E72C1F3C221C0F60002F0
:1014F000515CC840704700002DE9F04182B00028DF
:1015000068D00446007841F20006C007C4F2020623
:1015100025D0706800F00C0004281BD0706800F023
:101520000C00082802D17068C00313D4606800283A
:1015300000F06881B0F5A02F00F07C81B0F5803F0D
:1015400000F07C81306820F480303060306820F416
:10155000802076E13068800301D56068D0B32078C0
:10156000800718D5706810F00C0F07D0706800F075
:101570000C0008286ED17068C0036BD430688007F7
:1015800002D52069012825D13068616920F0F80072
:1015900040EAC1003060207800071FD4207840075F
:1015A00032D4E56995B1706800F00C00082840F06D
:1015B0008F80012D0ED07068216A00F480328A423B
:1015C00008D1616A00F47010884203D1002002B093
:1015D000BDE8F081012002B0BDE8F081A0690028DB
:1015E00062D00020C4F242200121C0F88014FFF72D
:1015F00061F90546706A800700F18C80FFF75AF99F
:10160000401B0228F6D92AE1F06910F0805808D171
:10161000F06940F08050F061F06900F08050009077
:10162000009847F20007C4F200073868C00529D4C3
:10163000386840F480703860FFF73CF9054600BF19
:101640003868C0051ED4FFF735F9401B6428F7D968
:1016500005E100BF2069002840F20000C4F24220EA
:1016600000F0828001210160FFF724F9054600BFE8
:10167000306880073FF588AFFFF71CF9401B022850
:10168000F6D9ECE0E068002800F08080052800F042
:101690009780012800F09880306A20F001003062C5
:1016A000306A20F0040092E00020C4F242200021C1
:1016B000C0F88014FFF7FEF8054600BF706A800787
:1016C0007FF56CAFFFF7F6F8401B0228F6D9C6E0AD
:1016D0000027C4F2422700203866FFF7EBF8022DFE
:1016E00005460BD13068800140F1BE80FFF7E2F87B
:1016F000401B02284FF00300F4D968E730688001EE
:101700007FF564AFFFF7D6F8401B02284FF00300C7
:10171000F4D95CE740F20800C2F20000006844F629
:10172000D351C1F26201A0FB0101480A019000BF40
:1017300000BF0198411E002801913FF42FAF00BF68
:101740000198411E002801913FF428AF00BF019885
:10175000411E002801913FF421AF00BF0198411EB6
:1017600000280191E4D119E700210160FFF7A2F8F8
:10177000054600BF306880077FF50DAFFFF79AF888
:10178000401B02284FF00300F4D920E7306A20F014
:1017900001003062306A20F004003062FFF78AF8FE
:1017A000054641F2883700BF306A800720D5FFF731
:1017B00081F8401BB8424FF00300F5D907E700BF9E
:1017C000306A40F004003062306A40F0010030625C
:1017D000FFF770F8054641F2883700BF306A80078E
:1017E00006D4FFF767F8401BB842F7D937E000BFCF
:1017F000B8F1000F7FF4D5AEF06920F08050F061B1
:10180000CFE600BF306820F480303060306820F4CC
:1018100080203060FFF74EF8054600BF3068800337
:101820007FF59DAEFFF746F8401B64284FF003009C
:10183000F4D9CCE6306840F480203060306840F461
:1018400080303060FFF736F8054600BF306880030F
:101850003FF585AEFFF72EF8401B6428F6D903202C
:1018600002B0BDE8F08100BF206AB0F5803F05D12D
:101870007168A26821F40031114371607168626A75
:1018800021F4741111430843706001203866FFF79A
:1018900011F80446306880013FF598AEFFF70AF86A
:1018A000001B02284FF00300F4D990E6411E0020EF
:1018B000B0EB116F1CBF012070474EF21002CEF248
:1018C000000251604EF62351CEF20001F0230B705E
:1018D000072190601160704770470000704700005A
:1018E000B0B582B0026805461068D368546900F04C
:1018F0002F01202903F0200106D129B1284602B08A
:10190000BDE8B04000F074BE5FEA007C1EBF04F08A
:10191000010E03F4907414EB0E0453D1296B0129CA
:1019200005D110F0100118BF13F0100136D10106D7
:1019300022D513F080011FD095F83D0021283FD11A
:10194000A868B0F5805F03D12869002800F0F8800E
:10195000286A411C296200785060E88C0138010433
:10196000E8842DD1D06820F08000D060D06840F0AD
:101970004000D06002B0B0BD400621D513F0400059
:101980001ED0D068202120F04000D060284685F885
:101990003D1002B0BDE8B04000F092B900200190C7
:1019A000106801905068019001985069400611D468
:1019B000A88DE98DEB8D002B18BF884240F0A680E2
:1019C00002B0B0BDC40718BF13F480732CD1430715
:1019D00030D436E0A86B01684B689CB2002CEFD085
:1019E000A98D8C42ECD2EB858369202B17D0D1686E
:1019F00021F48071D160516921F001015161516977
:101A000021F040015161202185F83E100021296319
:101A1000D16821F01001D160FEF7C0FCA98DE88DDE
:101A2000081A81B2284685E02B6C43F001032B6431
:101A3000430706D5BEF1000F03D02B6C43F0020321
:101A40002B64830706D5BEF1000F03D02B6C43F047
:101A500004032B64BCF1000F09D541EA0E03B3FA6D
:101A600083F35B0903D12B6C43F008032B642B6CCD
:101A7000002BA5D010F0200018BF002903D0284665
:101A800000F0B6FD2A685069296C00F0400001F0B2
:101A9000080140182CD0D06820F49070D0605069B4
:101AA00020F001005061286B012803D1D06820F09C
:101AB0001000D060202085F83E0000202863506987
:101AC00040061DD5506920F040005061A86BB8B1A8
:101AD00042F2E551C0F600014163FEF783FC0028A5
:101AE0003FF46EAFA86B416B02B0BDE8B040084751
:101AF0002846FFF7F3FE0020286402B0B0BD00BF07
:101B0000284602B0BDE8B040FFF7E8BED368401AEF
:101B100023F49073D360536981B223F001035361BE
:101B2000202385F83E3000232B63D368284623F01A
:101B30001003D36002B0BDE8B040FFF7CDBE00BFD8
:101B4000286A30F8021B6FF35F215160286204E7B6
:101B5000002804BF0120704710B5044690F83D00EE
:101B600028B9002084F83C00204600F061F82420C9
:101B700084F83D002068D4E90212C36823F40053BE
:101B8000C360036923F440531A430261D4E9042378
:101B90001143C268194341F20C639A431143C16077
:101BA0004169A26921F44071114343F60002C4F275
:101BB00001029042416103D0FFF776FC02E000BFD2
:101BC000FFF786FC6268192148439100B0FBF1F0F1
:101BD00048F21F51C5F2EB11A0FB01235A094FF641
:101BE0009C73C0F6FF7302FB0300322303EB00106B
:101BF000A0FB0101F02303EA5113206803EB02125A
:101C0000C1F3431111448160016921F490410161E4
:101C1000416921F02A014161C16841F40051C1606C
:101C200000202021206484F83D1084F83E1010BD6F
:101C300070B586B040F60004C4F20104006804F5F3
:101C4000405100268842049602D006B070BD00BF05
:101C500041F21800C4F20200016802AD41F4804173
:101C60000160016801F4804101910199016841F02E
:101C7000040101600068294600F004000190019809
:101C80004FF400700290022003900320059020463C
:101C9000FEF70CFD4FF48060CDE902062046294690
:101CA0000496FEF703FD252000210022FFF7CEFA5F
:101CB0002520FFF7B7FA06B070BD0000704700009E
:101CC00070470000FEE7000040F27000C2F2000022
:101CD000FEF7FABD10B581B000210091406A40F2D4
:101CE0000801C2F2000190F83DC009684BF2895228
:101CF000C908C1F2F842A1FB0212110A2322514382
:101D00000091009911B300990139009101680968A7
:101D100089051FD50099C9B1009901390091016861
:101D20000968890516D5009981B10099013900919A
:101D30000168096889050DD5009939B10099013903
:101D40000091016809688905DBD403E0016C41F06A
:101D500020010164446B4FF0000E002C1CBF0021D9
:101D6000A162816B00291CBF00228A620268002CDC
:101D7000136823F480631360A0F82AE018BFC4F846
:101D800034E000291CBF00234B63116821F00101DE
:101D9000116090F83D1060290CD1202180F83D1091
:101DA000002180F83E10016401B0BDE81040FEF74C
:101DB00087BD00BF0CF02801282911D1116841F01E
:101DC00001011160116841F480611160002101631B
:101DD000282180F83D1001B0BDE81040FFF7A2B8FF
:101DE000202180F83D10002180F83E1001B0BDE8B0
:101DF0001040FFF797B8000010B5044690F83D106A
:101E000090F83E00B0F1100218BF0122403818BF10
:101E10000120024208BF222934D001F028002828DE
:101E20003AD100202063282084F83D0020684168D2
:101E3000090542D5416821F400614160606B90F86A
:101E40002110012958D1A06B41F6D541C0F60001FF
:101E50004163FEF7C7FA002861D02068416949064E
:101E600006D50069616A0870616A206801316162A3
:101E7000016821F001010160202084F83D00A06B81
:101E80004BE000BF2068026822F4006202604268F2
:101E9000120505D50CE000BF20684268120507D482
:101EA000602905D0202184F83D10002184F83E10DF
:101EB0000021216341680905BCD494F83D106029D4
:101EC00050D1202184F83D10002121644169490648
:101ED00006D50069616A0870616A20680131616233
:101EE000016821F0010101602046FEF7E9FC206C49
:101EF000000717D11BE000BF41F6D541C0F6000135
:101F00004163FEF76FFA50B12168606B0A6822F0F6
:101F100001020A60202184F83D10416B8847206C43
:101F2000000704D02068416821F4E061416094F822
:101F30003D00216C490758BF10BD282810D1002052
:101F4000CFF6FF70E06200212020216384F83D007D
:101F5000204684F83E10BDE81040FFF7A1B800BF4E
:101F600010BD00BF4169490605D50069616A087066
:101F7000606A013060622046FEF7D4FF206C0007E3
:101F8000D0D1D4E7C16A428D042A07D10168426AE0
:101F90004B6823F480634B60096911E0428D032A8A
:101FA00016D102680229536823F48063536005D078
:101FB000042903D0116821F4806111601169426A1B
:101FC0001170416A01314162418D0139418570478B
:101FD000428D022A12D101390F2919D8DFE801F008
:101FE000081218121818181818181818181818089D
:101FF00001680A6822F480620EE000BF0168426A4C
:10200000CAE700BF01680A6842F4806204E000BFCA
:1020100001680A6842F400720A600969426A117034
:10202000416A02684B1C4362438D013B4385126940
:102030004A70416A026801314162418D013941852E
:10204000516821F440715160202180F83D1090F8D2
:102050003E200021402A80F83E1003D10163FFF7A3
:1020600025B800BF12210163FFF71CB881B090F8BA
:102070003D10222972D1418D042913D30168426A8F
:1020800009691170416A01314162418D013941850F
:10209000418D032962D10068416821F4806141606B
:1020A0005CE000BFC26A022A58D0012956D800213C
:1020B000009140F20801C2F2000109684BF2895216
:1020C000C908C1F2F842A1FB0212110A01EB810119
:1020D00000910099013900910099002940D00168D0
:1020E0000A6892051AD50099013900910099B9B38F
:1020F00001680A68920511D500990139009100998B
:1021000071B301680A68920508D5009901390091F8
:10211000009929B301680A689205DAD40A6822F4A2
:1021200080620A604A6822F4E0624A600969426A91
:102130001170416A01314162418D0139418520218F
:1021400080F83D1090F83E200021402A80F83E1093
:1021500022D1016301B0FEF7A9BF00BF01B07047F3
:10216000016C41F0200101640168426A4B6823F46C
:10217000E0634B6009691170416A01314162418D30
:1021800001394185202180F83D10002180F83E1062
:1021900001B0FEF7C7BE00BF1221016301B0FEF718
:1021A00081BF0000C16A90F83D20212A18BF704706
:1021B000428D4AB1416A026811F8013B13614162E4
:1021C000418D01394185704711F5803F18BF0829BD
:1021D00018D101684A6822F4E0624A600A6842F451
:1021E00000720A6000212022016380F83D2090F8EF
:1021F0003E2080F83E10402A08BFFEF759BFFEF788
:1022000053BF00BF2029E4D001684A6822F4E0628D
:102210004A6011210163002180F83E10202180F8DE
:102220003D10FEF741BF000090F83D1090F83EC011
:10223000C26A038D002B08BF212919D0212905D09E
:10224000BCF1400F08BF222900D07047418D69B30F
:1022500090F83E10402908BF00F040B8416A02687B
:1022600011F8013B13614162418D0139418570478D
:1022700012F5803F18BF082A1ED101684A6822F46F
:10228000E0624A600A6842F400720A60002120227B
:10229000016380F83D2090F83E2080F83E10402AEF
:1022A00008BFFEF705BFFEF7FFBE00BF006841682C
:1022B00021F4806141607047202ADED001684A68BD
:1022C00022F4E0624A6011210163002180F83E108F
:1022D000202180F83D10FEF7E7BE000090F83D1089
:1022E000026D5AB1026D012A14D10168826CD2B21A
:1022F0000A61016D01310165704700BFC26C816CDC
:10230000012A17D10268C9B21161016D023101655C
:10231000704700BF026D022A18BF7047222911D1F1
:1023200001680A6842F480720A60016D013101653A
:10233000704700BF0268C1F307211161016D0131CF
:10234000016512E0428D5AB1212909D1416A026822
:1023500011F8013B13614162418D0139418570479C
:10236000428D002A08BF212900D0704701684A68C1
:1023700022F4E0624A600A6842F400720A600021B6
:102380002022016380F83D2080F83E10FEF790BEC9
:102390002DE9F04F85B04FF0000841F21800CDF85C
:1023A0001080C4F20200016840F6000441F04001D0
:1023B00001600168C4F2010401F04001009100993C
:1023C000016804F5006641F08001016001680122A6
:1023D00001F080010091009901684FF00F0B41F06E
:1023E0001001016001684FF0010901F01001009136
:1023F0000099016841F004010160016801F00401E5
:1024000000910099016841F008010160016801F044
:10241000080100910099016841F020010160006805
:102420000F2100F02000009000983046FEF73CFAA3
:1024300020464FF6FF110122FEF736FA04F58065BB
:1024400028464FF63F710122FEF72EFA01AF4FF6F4
:10245000FF7A04F580503946CDE901A8CDF80C800B
:10246000FEF724F90020C1F21100CDE9020804F5BD
:10247000A0503946CDF804A0FEF718F9CDE901B90E
:102480004FF0020B30463946CDF80C80CDF810B035
:10249000FEF70CF94FF6FF10CDE901092046394649
:1024A000CDE9038BFEF702F94FF63F70CDE9010944
:1024B00028463946CDE9038BFEF7F8F804F540606D
:1024C0003946CDE901A8CDF80C80FEF7EFF80620DB
:1024D00000210022FEF7BAFE0620FEF7A3FE072029
:1024E00000210022FEF7B2FE0720FEF79BFE082027
:1024F00000210022FEF7AAFE0820FEF793FE092025
:1025000000210022FEF7A2FE0920FEF78BFE0A2022
:1025100000210022FEF79AFE0A20FEF783FE172014
:1025200000210022FEF792FE1720FEF77BFE2820F6
:1025300000210022FEF78AFE2820FEF773FE05B078
:10254000BDE8F08F80B540F2700045F20041C2F264
:102550000000C4F2000148F2A06200234FF4804C56
:10256000C0F2010280E80E00C0E9033CC0E9053377
:10257000C0E90733FEF7D8FC002808BF80BDBDE8DE
:102580008040FDF7EFBE000080B540F2C40043F686
:102590000001C2F20000C4F2010100234FF00C0C54
:1025A0004FF4E13280E80E00C0E90333C0E905C30F
:1025B000C361FFF7CDFA002808BF80BDBDE88040A9
:1025C000FDF7D0BEFEE70000FEE70000FEF77CBE90
:1025D000704700007047000070470000FEF7A8BD7C
:1025E00070470000406A0021C185C184FFF776B9B9
:1025F00081B090F83E10222921D183680246B3F5BC
:10260000805F09D152F8281F52F8183C002B3FD0A8
:1026100003685B680AE000BF52F8281F13B903691A
:10262000002BF5D003685B6803F07F030B70116823
:1026300001311160C18D01390A04C18502D001B098
:10264000704700BF0168CA6822F02002CA60CA68E9
:1026500022F48072CA604A6922F001024A61202293
:1026600080F83E20026B012A1AD100220263CB6857
:1026700023F01003CB600B68DB0605D500920A68D7
:102680000092496800910099818D01B0FFF724B94B
:10269000026852686FF35F2221F8022B8162C9E75A
:1026A00001B0FFF70BBB000040F2C400C2F2000013
:1026B000FFF716B9FEE7000090B0FEF747FD06AC45
:1026C000201D2421FDF7A2FD0220069001200A9082
:1026D00010200B90002520460D95FEF70DFF28B128
:1026E000EFF3108072B600BFFEE700BF0F20CDE908
:1026F000010501A80021CDE903550595FEF7F4FD7C
:1027000020B1EFF3108072B6FEE700BFFFF740FE86
:10271000FFF73AFFFFF716FF40F60004C4F201048A
:10272000204601210122FEF7BFF8F9E7010200006F
:102730000000000000000102030406070809000071
:1027400000000102030402030405060708090A0B3E
:102750000C0D0E0F1010000078270008000000205C
:10276000100000006C0100088827000810000020FD
:102770002007000088010008010000001000000090
:082780000024F4000000000039
:0400000508000131BD
:00000001FF
